:020000040800F2
:10000000401400205D310008E5080008E7080008FA
:10001000EB080008EF080008F308000800000000E3
:10002000000000000000000000000000F7080008C9
:10003000F908000800000000FB080008FD0800089F
:1000400077310008773100087731000877310008F0
:100050007731000877310008813E000877310008C9
:1000600077310008773100087731000877310008D0
:1000700077310008773100087731000877310008C0
:1000800077310008773100087731000877310008B0
:1000900077310008773100087731000877310008A0
:1000A0007731000877310008773100087731000890
:1000B000773100083B3800087731000877310008B5
:1000C0007731000877310008773100087731000870
:1000D000773100088142000899420008C1420008B7
:1000E000773100087731000877310008DFF80CD04D
:1000F00004F070FD004800470B0800084014002081
:1001000010B50020FE490870002404E00020FD49DD
:100110000855601CC4B2642CF8DB03F05DFB10BD15
:1001200070B5FFF7EDFFF8A004F0C6FE4FF496702F
:1001300003F0F3FEF7A1F34804F0E2F9F749086091
:100140000EE0FFF7DDFFF0A004F0B6FE4FF496706E
:1001500003F0E3FEEFA1EB4804F0D2F9EF490860A9
:10016000EE4800680028ECD0E64804F064F800246B
:1001700007E0EA480168E01D095CE9480155601C98
:10018000C4B20F2CF5DBE748006804F0CBF9054654
:100190002A46E4480168E2482F3004F081F9E24839
:1001A000006804F0BFF905462A46DF480168DC48CC
:1001B000613004F075F970BD10B5DCA004F07CFE70
:1001C0004FF4967003F0A9FEDAA1CE4804F098F936
:1001D000D2490860D5A004F06FFE4FF4967003F08A
:1001E0009CFED4A1C74804F08BF9CC49086003F009
:1001F000F3FACA480068C0B90120CF4908604FF43B
:10020000967003F08AFE4FF4967003F086FE4FF46A
:10021000967003F082FE4FF4967003F07EFE00208D
:10022000C649C1F88C0103F0D7FAC0A004F044FE1F
:100230004FF4967003F071FE03F0CEFABDA1B14801
:1002400004F05EF9B549086018E0FFF759FFB7A060
:1002500004F032FE4FF4967003F05FFEB6480C30A7
:10026000006808B9012000E00020B3490C310860A3
:10027000B0A1A44804F044F9A8490860A748006860
:100280000028E2D00120AC490C310860AB49C1F82C
:100290009C01ABA004F010FE4FF4967003F03DFEFD
:1002A000AAA004F009FE4FF4967003F036FEAAA04F
:1002B00004F002FE4FF4967003F02FFEAAA004F0A3
:1002C000FBFD4FF4967003F028FE03F085FA10BD95
:1002D00010B5A9480078192805DAA7480078401C0D
:1002E000A549087002E00020A3490870A2480078E0
:1002F0000A287CD2DFE800F005292D3A5B8797A019
:10030000A5CA8748401E007805281CD2DFE800F007
:1003100003090F15180003F07CFB98A003F08BFF76
:1003200011E003F07BFB9AA003F085FF0BE003F0E4
:100330007DFB9AA003F07FFF05E003F05DFB02E088
:1003400003F05FFB00BF00BFBAE0984804F004FD73
:10035000B6E07348401E0078052805D103F070FB15
:1003600093A003F068FF00BF00BFA9E06C48401EE7
:10037000007806281AD16A48401E90F82800401CD0
:100380006749491E81F82800084690F8280005288A
:100390000CDB481C03F071FB8CA003F04CFF002029
:1003A0005F49491E81F828000F20087088E05C48EA
:1003B000401E0078082825D15948401E90F8280092
:1003C000401C5749491E81F82800084690F828002B
:1003D000032817DB8548C36A491C826A844803F0F6
:1003E000DDFF83494E482F3003F04DFB00E066E00F
:1003F00080A003F020FF00204949491E81F8280011
:100400000F2008705CE04648401E0078FF2809D1A4
:1004100049480C30006808B9012000E00020464936
:100420000C3108604CE03E48401E0078072802D19D
:1004300076A004F041FD43E07A49481E03F093FAA8
:100440003EE03748401E007808281ED13448401E40
:1004500090F89400C8B93248401E90F89500401CAE
:100460002F49491E81F89500084690F895000A2802
:100470000BDB01F1620003F00FFB6BA003F0DBFE6E
:1004800000202749491E81F8950019E02448401EA4
:1004900000780F280CD12248401EC06A401C204919
:1004A000491EC8620846C06AC82805D300BFFEE7D7
:1004B00000201B49491EC86203F08EF900E000BF0E
:1004C00000BF10BD10B5002211461B2003F041F8FB
:1004D000012200212D2003F03CF8022200213F20C0
:1004E00003F037F803220021512003F032F80422F0
:1004F0000021632003F02DF8102351A20321A5E071
:100500004C030020780F002041542B4347534E3DAD
:10051000310D0A002B4347534E3A000004000020DF
:1005200011080020140000201800002041540D0A7A
:10053000000000004F4B00008C01224200002242CC
:100540004154653026770D0A0000000041542B43CA
:1005500046554E3D310D0A0041542B51474E5353E1
:10056000433D310D0A00000041542B514D54434C82
:100570004F53453D300D0A001E000020B2E9D1AFB7
:10058000BFA8B5C4D7B4CCACA3A10D0A000000002D
:10059000D7A2B2E1CDF8C2E70D0A0000BBF1C8A1B5
:1005A000D7A2CDF8C7E9BFF60D0A0000D808002091
:1005B000C1ACBDD34D515454B7FECEF1C6F7205453
:1005C0004350C4A3CABD0D0A00000000B5C7C2BC99
:1005D0004D515454B7FECEF1C6F72CC0FBD3C34DDA
:1005E000515454B7BDCABD0D0A000000A808002030
:1005F000E3060020B7A2B2BCCFFBCFA2B5BD4D51E0
:100600005454B7FECEF1C6F70D0A000041542B51E9
:10061000474E535352443D224E4D45412F524D4378
:10062000220D0A003D030020B6A9D4C4CFFBCFA2FF
:10063000B5BD4D515454B7FECEF1C6F70D0A0000BA
:10064000506F776572206F6E000000001E2002F070
:1006500063FF10BD10B505220021084602F079FFA6
:1006600007220021122002F074FF10237FA2002134
:10067000242002F051FF06220321002002F069FF2E
:1006800007220321122002F064FF10237AA2032123
:10069000242002F041FF10BD10B5082200210846B9
:1006A00002F057FF07220021122002F052FF102310
:1006B00074A20021242002F02FFF09220321002030
:1006C00002F047FF07220321122002F042FF10230D
:1006D0006EA20321242002F01FFF10BD00B587B0D9
:1006E00014226CA1684603F0DBFE6F496F4803F0EB
:1006F0003AF93A208DF814006C4800780A2190FBF2
:10070000F1F03030C0B28DF80C009DF80C008DF87F
:1007100015006648007890FBF1F201FB12003030C2
:10072000C0B28DF80D009DF80D008DF81600002068
:100730008DF81700102305AA0021242002F0ECFEFA
:10074000594800780A2190FBF1F03030C0B28DF8A2
:100750000E009DF80E008DF815005348007890FBB0
:10076000F1F201FB12003030C0B28DF80F009DF89D
:100770000F008DF81600102305AA0321242002F093
:10078000CBFE07B000BD10B503F08AFB4FF47A70C2
:1007900003F0C3FB02F0DCFF02F0F3FF4FF4E130A3
:1007A00003F0F6FB4FF4E13003F041FC00BF03F02F
:1007B00006F90028FBD102F03FFF02F0D3FDFFF75E
:1007C00081FE40F27121072002F0F4FFFFF7F4FCF4
:1007D00003F022FBFFF7A4FC354B364A00213648D4
:1007E00004F09AFA35A23749334804F057FB03F076
:1007F000F0FC41F61F41C72002F0F2FF02F0B2FD0B
:10080000FFF74AFFFFF76AFF10BDFFF7BCFF2CE0C0
:100810002D480078E8B100202B49087001202B49B1
:1008200008602B49C1F89C0102F09CFDFFF734FFE2
:10083000FFF754FF4FF49671264803F04AFE264A0C
:100840002649244803F0FAFD224924482F3003F0BA
:100850001AF902F0C1FF2248007830B10020204987
:100860000870FFF735FD02F0B7FFD1E73A303030BE
:100870002E303030303030003A30302E30303030A2
:10088000303000003A303043000000003A3030256C
:1008900000000000373237333934414342383232B6
:1008A00031323334000000001D0000201C00002005
:1008B000150C00084D0B0008D80800204F4B0D0AFE
:1008C000000000008C5300083F03002098012242E2
:1008D00000002242E3060020520D002011080020F3
:1008E00000000020704700BFFEE700BFFEE700BF2A
:1008F000FEE700BFFEE77047704770477047000093
:1009000010B501F047F9012001F0C9F900BF21201D
:1009100001F083F90028FAD0102000F0A3FC022097
:1009200000F08CFC002001F0DAF9002001F0E9F978
:100930004FF4806001F0DCF94FF46011002001F009
:10094000B1F9012001F0BAF900BF392001F065F9D1
:100950000028FAD0022001F0B4F900BF01F0BAF982
:100960000828FBD101211D2001F082FA10BD0CB531
:100970000020019000906C48006840F480306A4983
:10098000086000BF6848006800F4003000900198DB
:10099000401C0190009818B90198B0F5A06FF1D1F2
:1009A0006148006800F4003010B10120009001E0BF
:1009B000002000900098012843D15C48006840F076
:1009C00010005A4908600846006820F003000860DB
:1009D0000846006840F002000860534840685249E9
:1009E00048600846406848600846406840F48060B7
:1009F00048600846406820F47C104860084640681B
:100A000040F4E81048600846006840F080700860D4
:100A100000BF4548006800F000700028F9D0424847
:100A2000406820F00300404948600846406840F0B4
:100A30000200486000BF3C48406800F00C000828F5
:100A4000F9D10CBD10B5FFF792FF10BD10B53648B7
:100A5000006840F0010034490860084640683449A5
:100A600008403149486008460068324908402E492C
:100A700008600846006820F4802008600846406846
:100A800020F4FE0048604FF41F008860FFF7DAFF93
:100A90004FF000602849086010BD10B5002100200B
:100AA0000022214B5B6803F00C0121B1042906D020
:100AB000082928D107E0214B214C236027E01F4B58
:100AC0001F4C236023E0184B5B6803F47010164B37
:100AD0005B6803F48032022303EB904022B9194B88
:100AE0004343174C23600DE00F4B5B6803F4003366
:100AF00023B1144B4343124C236003E00F4B434399
:100B00000F4C236003E00D4B0D4C236000BF00BF72
:100B1000054B5B68C3F303130B4CE15C084B1B688C
:100B2000CB40074C236010BD001002400020024063
:100B30000000FFF8FFFFF6FE08ED00E000127A006B
:100B40002000002000093D002400002070B505466B
:100B50000C461646204603F0ECFB70BD002073499E
:100B600008607349C1F89C01704770B505460024C0
:100B7000284603F060FB6FA1284603F0C1FC06463F
:100B80006E480168304603F0DDFC6D490860641C66
:100B90001DE0022C0CD16A4801686A4803F0A4FCED
:100BA0003221694803F095FC6649674803F09CFCD4
:100BB000042C04D162480168644803F095FC5F4846
:100BC0000168002003F0BEFC5D490860641C5C48BD
:100BD00000680028DDD102F0C5FB10235B4A00212C
:100BE000122002F099FC1023564A0321122002F031
:100BF00093FC102356A20621122002F08DFC58A16E
:100C0000524803F096FC59A14E4803F092FCFFF7BE
:100C1000A5FF70BD2DE9F04105460E461746C82FC9
:100C200000D9C8273A463146534803F039FC0B2D0A
:100C300076D2DFE805F0060A0E123E4249515864AA
:100C4000680001204D4908706BE001204B49087095
:100C500067E003204949087063E049A1304603F08A
:100C60004FFC0446E0783038A178303901EB81013F
:100C700000EB4100414908770846007F632803DB09
:100C800060783038002813DD04203C490870A078D3
:100C90004877E178394881770021C17739A003F09E
:100CA000CAFA36481D3003F0C6FA39A003F0C3FA79
:100CB00037E006203149087033E007202F490870DB
:100CC00034A003F0B8FA2CE001202C4981F89400FC
:100CD00036A003F0B0FA24E007202849087039A0B4
:100CE00003F0A9FA1DE03DA003F0A5FA3A4631460B
:100CF0003E4803F0D5FB3D48FFF737FF11E037A032
:100D000003F099FA0DE008201C4908703A46314674
:100D1000194803F0C5FB184802F0C5FE01E0FFE7E3
:100D200000BF00BF0120BDE8F08100009801224211
:100D30000000224273746174696F6E00A400002089
:100D40009C00002038000020520D00206A00002086
:100D500049532043414C4C494E472E2E2E00000053
:100D600075736572436F756E743A0000546F20732B
:100D7000746174696F6E3A00260C00201008002020
:100D80003A000000D0C5BAC5C7BFB6C8D6B53A004C
:100D90000D0A00004D515454B7FECEF1C6F7B5C749
:100DA000C2BCB3C9B9A6A3A10D0A00004D51545449
:100DB000D6F7CCE2B6A9D4C4B3C9B9A6A3A10D0A8B
:100DC000000000004D515454B7A2B2BCCAFDBEDDB4
:100DD000B3C9B9A6A3A10D0A00000000B6A9D4C4E6
:100DE000B5BDCAFDBEDD3A2000000000EE0C0020BB
:100DF00031490143314A1160704770B50021002329
:100E00000F22C47804B32D4C246804F4E064C4F5C4
:100E1000E064210AC1F10403CA40447804FA03F1F2
:100E20008478144021430901254C0678A1550478A3
:100E300004F01F050124AC4005786D11AD0005F1EB
:100E4000E025C5F8004109E0047804F01F050124FD
:100E5000AC401C4D0678761145F8264070BD1A4A04
:100E60000A400243154B1B1F1A60704739B1134AE1
:100E7000121D12680243114B1B1D1A6006E00F4A37
:100E8000121D126882430D4B1B1D1A607047042807
:100E900008D14FF0E021096941F004014FF0E02250
:100EA000116107E04FF0E021096921F004014FF0E2
:100EB000E0221161704700000000FA050CED00E02F
:100EC00000E400E080E100E080FFFF1F01684FF6D2
:100ED000FE72114001600021016041608160C160CB
:100EE0008D49884208D18C490839496841F00F0181
:100EF000894A083A51608AE087491431884208D10A
:100F000085490839496841F0F001834A083A51603F
:100F10007DE081492831884208D17F4908394968F4
:100F200041F470617C4A083A516070E07A493C3182
:100F3000884208D178490839496841F47041764AB5
:100F4000083A516063E074495031884208D17249CF
:100F50000839496841F470216F4A083A516056E0F7
:100F60006D496431884208D16B490839496841F4B8
:100F70007001694A083A516049E06749783188420E
:100F800008D165490839496841F07061624A083AF8
:100F900051603CE06149884206D1011F096841F077
:100FA0000F01021F116032E05C491431884208D100
:100FB0005A49091F096841F0F001584A121F11608F
:100FC00025E056492831884208D15449091F09684B
:100FD00041F47061514A121F116018E04F493C31D1
:100FE000884208D14D49091F096841F470414B4AB4
:100FF000121F11600BE049495031884207D147491F
:10100000091F096841F47021444A121F116070479A
:1010100010B50022026847F6F0739A430C6A8B6899
:1010200023430C6923434C6923438C692343CC69D4
:1010300023434C6A23438C6A23431A430260CB68E0
:1010400043600B6883604B68C36010BD0021016082
:1010500041608160C160016141618161C161016282
:1010600041628162704721B1026842F00102026070
:1010700004E002684FF6FE731A40026070471AB12E
:1010800003680B43036002E003688B43036070470F
:10109000416070470146486880B2704701460020B1
:1010A000002201F080531BB11C4B083B1A6802E080
:1010B000194B083B1A6802EA01030BB1012000E05A
:1010C0000020704700F0805119B11449091F0860D1
:1010D00002E01149083948607047014600200022AB
:1010E00001F080531BB10D4B083B1A6802E00A4B1C
:1010F000083B1A6802EA01030BB1012000E000205E
:10110000704700F0805119B10449091F086002E0DE
:10111000014908394860704708000240080402404D
:10112000002044490860091D0860091D0860091D68
:10113000086041483F4914310860704700213D492B
:101140008279002A3AD00A46126803689A430B460D
:101150001A600A1D126803689A430B1D1A6002790F
:1011600011440A6803681A430A60324A0832126856
:1011700003689A432F4B08331A601A1D12680368DC
:101180009A432C4B0C331A604279102A0ED11A1F45
:10119000126803681A43274B08331A601A1D126835
:1011A00003681A43234B0C331A600DE0214942793E
:1011B00011440A6803681A430A6005E00279114481
:1011C0000A6803689A430A60704700210160017150
:1011D0000C21417100218171704716491031096855
:1011E0000143144A10321160704701460020114A31
:1011F000143212680A400AB1012000E00020704752
:101200000C49143108607047014600200022094B48
:101210001B6803EA0102074B14331B680B4013B130
:101220000AB1012000E00020704702491431086033
:101230007047000000040140FFFF0F00014600203E
:10124000FE4A106800F03800084310607047FB4900
:10125000096821F00801F94A116011460968014343
:1012600011607047F549096821F01001F34A1160D7
:1012700011460968014311607047F148EF49486021
:10128000F04848607047EE48EC494860ED484860D7
:101290007047EA48006940F08000E84908617047FB
:1012A000E648006940F08000E44908617047042086
:1012B000E249C96801F0010109B101200EE0DF49EE
:1012C000C96801F0040109B1022007E0DB49C968DF
:1012D00001F0100109B1032000E00420704700B5BF
:1012E00002460423FFF7E3FF034603E0FFF7DFFFB7
:1012F0000346521E012B01D1002AF7D102B9052362
:10130000184600BD30B5044604254FF43020FFF7E1
:10131000E6FF0546042D17D1C848006940F00200D9
:10132000C649086108464461006940F04000086110
:101330004FF43020FFF7D3FF0546C048006941F65F
:10134000FD710840BD490861284630BD10B5042430
:101350004FF43020FFF7C3FF0446042C16D1B748E2
:10136000006940F00400B54908610846006940F092
:10137000400008614FF43020FFF7B1FF0446AF484A
:10138000006941F6FB710840AC490861204610BD78
:1013900000B502460423FFF78AFF034603E0FFF788
:1013A00086FF0346521E012B01D1002AF7D102B954
:1013B0000523184600BD10B504244FF43020FFF774
:1013C000E7FF0446042C16D19C48006940F0040055
:1013D0009A4908610846006940F0400008614FF4EE
:1013E0003020FFF7D5FF04469448006941F6FB71B1
:1013F000084092490861204610BD00208F49C96904
:1014000001F0020109B1012000E00020704730B571
:10141000A5250424FFF7F1FF00B100254FF430208B
:10142000FFF75DFF0446042C3AD185488349886064
:10143000844888600846006940F02000086108463A
:10144000006940F0400008614FF43020FFF747FF8B
:101450000446042C1BD17948006941F6DF7108402D
:10146000764908610846006940F010000861764836
:101470000580E002FFF733FF0446052C10D06F48CB
:10148000006941F6EF7108406C49086108E0052CDD
:1014900006D06A48006941F6EF7108406749086163
:1014A000204630BD78B506460C4604250020009045
:1014B000E802FFF714FF0546042D24D15F480069B8
:1014C00040F001005D4908613480E802FFF707FF42
:1014D0000546042D10D1B01C0090200C0099088006
:1014E000E802FFF7FCFE05465448006941F6FE712C
:1014F00008405249086106E05048006941F6FE7113
:1015000008404E490861284678BD70B504460D462E
:101510000426F002FFF7E3FE0646042E11D14748E9
:10152000006940F00100454908612580F002FFF79D
:10153000D6FE06464148006941F6FE7108403F4923
:101540000861304670BD70B505460E460424E002C1
:10155000FFF7C5FE0446042C17D139483749886087
:10156000384888600846006940F0100008612E8005
:10157000E002FFF7B4FE0446052C06D02F480069B0
:1015800041F6EF7108402D490861204670BD2DE9F4
:10159000F04304464FF6FF763746B046B146042581
:1015A000E443E6B2C4F30727C4F307484FEA1469DB
:1015B000E802FFF794FE0546042D49D120481F4953
:1015C0008860204888600846006940F01000086183
:1015D000FF2E06D01C4808300680E802FFF77FFE89
:1015E0000546042D08D1FF2F06D017480A30078082
:1015F000E802FFF774FE0546042D0AD1B8F1FF0F8B
:1016000007D011480C30A0F80080E802FFF767FE11
:101610000546042D0AD1B9F1FF0F07D00A480E3054
:10162000A0F80090E802FFF75AFE0546052D0FD0FE
:101630000248006941F6EF71084007E000200240CF
:1016400023016745AB89EFCD00F8FF1F66490861AC
:101650002846BDE8F08330B5054604244FF4302019
:10166000FFF73DFE0446042C41D160485E49886086
:101670005F4888600846006940F02000086108461D
:10168000006940F0400008614FF43020FFF727FE6A
:101690000446042C22D15448006941F6DF71084009
:1016A000514908610846006940F0100008611DB109
:1016B00000205049088002E0A5204E4908804FF4E0
:1016C0003020FFF70CFE0446052C10D04648006978
:1016D00041F6EF7108404449086108E0052C06D046
:1016E0004148006941F6DF7108403F4908612046E2
:1016F00030BDF0B505460E46174604243B483A492E
:1017000088603B488860E002FFF7E9FD0446042C4E
:1017100019D13548006940F010003349086147F09D
:10172000F800304328433349891C0880E002FFF762
:10173000D6FD0446052C06D02B48006941F6EF7112
:101740000840294908612046F0BD2748C069800843
:1017500070472548006A704700202349096801F056
:10176000200109B1012000E00020704729B11E4A84
:10177000126902431C4B1A6104E01B4A126982433E
:10178000194B1A61704701460020012908D1164AF9
:10179000D26902F001020AB1012008E0002006E04F
:1017A000114AD2680A400AB1012000E000207047C7
:1017B0000D49C860704704200B49C96801F0010158
:1017C00009B101200EE00849C96801F0040109B11E
:1017D000022007E00449C96801F0100109B10320A3
:1017E00000E004207047000000200240230167450C
:1017F000AB89EFCD00F8FF1F10B50446CC488442FA
:1018000008D10121042000F04DFB0021042000F04C
:1018100049FB46E0C748844208D10121082000F076
:1018200041FB0021082000F03DFB3AE0C248844221
:1018300008D10121102000F035FB0021102000F01C
:1018400031FB2EE0BD48844208D10121202000F068
:1018500029FB0021202000F025FB22E0B84884422B
:1018600008D10121402000F01DFB0021402000F0A4
:1018700019FB16E0B348844208D10121802000F012
:1018800011FB0021802000F00DFB0AE0AE488442ED
:1018900007D10121801500F005FB0021A01500F003
:1018A00001FB10BD10B50121084600F0FBFA002134
:1018B000012000F0F7FA10BD2DE9F04102460025A5
:1018C0000026002000230024002791F803C00CF01C
:1018D0000F0591F803C00CF0100CBCF1000F03D001
:1018E00091F802C04CEA050591F800C0BCF1000F68
:1018F00031D0146800202BE04FF0010C0CFA00F3FB
:10190000B1F800C00CEA03069E4220D183004FF0DC
:101910000F0C0CFA03F7BC4305FA03FC4CEA040471
:1019200091F803C0BCF1280F06D14FF0010C0CFA5E
:1019300000FCC2F814C00AE091F803C0BCF1480FE3
:1019400005D14FF0010C0CFA00FCC2F810C0401C8D
:101950000828D1D31460B1F800C0BCF1FF0F34DD0A
:10196000546800202EE000F1080C4FF0010808FA3E
:101970000CF3B1F800C00CEA03069E4221D18300AB
:101980004FF00F0C0CFA03F7BC4305FA03FC4CEACA
:10199000040491F803C0BCF1280F05D100F1080C34
:1019A00008FA0CF8C2F8148091F803C0BCF1480F93
:1019B00007D100F1080C4FF0010808FA0CF8C2F842
:1019C0001080401C0828CED35460BDE8F0814FF64B
:1019D000FF710180022181700421C17070470246AD
:1019E000002093680B400BB1012000E000207047FD
:1019F0000146886880B2704702460020D3680B40D9
:101A00000BB1012000E0002070470146C86880B299
:101A1000704701617047416170470AB1016100E0A0
:101A200041617047C16070474FF480320A43826160
:101A30008161826182698269704702460020434B5E
:101A400018684FF68073184040EA021008433F4B75
:101A5000186070473E49C8617047F0B50A460023D8
:101A600000240021002500F00046B6F1004F02D10D
:101A7000364EF16901E0354E7168C0F3034583B21B
:101A800000F44016B6F5401F08D121F070612F4ECA
:101A9000766826F070662D4F7E6012E000F48016A6
:101AA000B6F5801F06D1032606FA05F4A14341F0DE
:101AB000706106E0460D360103FA06F6B14341F0C7
:101AC000706122B1460D360103FA06F6314300F08B
:101AD0000046B6F1004F02D11C4EF16101E01B4EF1
:101AE0007160F0BD30B500228B071C0F0F2303FA85
:101AF00004F2164B08338C1053F824309343134CE4
:101B000008348D1044F8253023468C1053F82430C7
:101B10008C07240F00FA04F423430C4C08348D1076
:101B200044F8253030BD0A49DC31086070470000B8
:101B300000080140000C0140001001400014014069
:101B400000180140001C014000200140000001403D
:101B5000000020420E49086070470D4948607047F8
:101B60000B49886070474AF6AA2009490860704707
:101B70004CF6CC4006490860704701460020044AF4
:101B8000D2680A400AB1012000E00020704700003E
:101B900000300040DF48006840F00100DD49086087
:101BA00008464068DC490840DA4948600846006851
:101BB000DA490840D74908600846006820F48020C8
:101BC00008600846406820F4FE0048604FF41F009B
:101BD00088607047CF49096821F48031CD4A11608F
:101BE0001146096821F480211160B0F5803F03D0CF
:101BF000B0F5802F0ED106E0C649096841F4803166
:101C0000C44A116007E0C349096841F4A021C14AF0
:101C1000116000E000BF00BF704710B50146002210
:101C2000002300204A11012A02D1BA4C236806E0A1
:101C3000022A02D1B74C236A01E0B64C636A01F074
:101C40001F02012494401C400CB1012000E0002040
:101C500010BD38B5002000900024002500BF3120C1
:101C6000FFF7DBFF05460098401C00900098B0F598
:101C7000A06F01D0002DF2D03120FFF7CEFF08B1C8
:101C8000012400E00024204638BD01460020A14A7E
:101C9000106820F0F80040EAC10010607047A049C9
:101CA00008607047024600209A4B586820F47C1068
:101CB00042EA01031843974B5860704798490866F9
:101CC000704701460020934A506820F00300084303
:101CD000506070478F48406800F00C007047014624
:101CE00000208C4A506820F0F00008435060704794
:101CF00001460020874A506820F4E06008435060A5
:101D0000704701460020834A506820F4605040EA42
:101D1000C1005060704729B17E4A527A02437D4B20
:101D20005A7204E07B4A527A82437A4B5A72704765
:101D30007B49D8310860704701460020754A5068D9
:101D400020F440400843506070470021714A20321F
:101D50001170704A82F82010012802D004280AD19C
:101D600004E001216B4A2032117005E00521694A27
:101D70002032117000E000BF00BF70476949086061
:101D800070476449096A0143624A116270476549B4
:101D900044390860704730B5002100220024002338
:101DA0005C4D6D6805F00C0121B1042905D00829AE
:101DB00023D105E05C4D056022E05B4D05601FE02E
:101DC000544D6D6805F47012524D6D6805F4803401
:101DD000022505EB92421CB9544D554305600BE0BA
:101DE0004C4D6D6805F400351DB1504D55430560EF
:101DF00002E04D4D5543056002E04B4D056000BFCC
:101E000000BF444D6D6805F0F0010909484D6B5C59
:101E10000568DD4045603F4D6D6805F4E061090AE5
:101E2000434D6B5C4568DD4085603A4D6D6805F457
:101E30006051C90A3E4D6B5C4568DD40C560354D5B
:101E40006D6805F44041890B3A4D6B5CC568B5FB84
:101E5000F3F5056130BD29B12E4A526902432D4B7D
:101E60005A6104E02B4A526982432A4B5A617047F7
:101E700029B1284A92690243264B9A6104E0254A17
:101E800092698243234B9A61704729B1214AD269F2
:101E90000243204BDA6104E01E4AD26982431D4BA3
:101EA000DA61704729B11B4AD2680243194BDA60E4
:101EB00004E0184AD2688243164BDA60704729B1B1
:101EC000144A12690243134B1A6104E0114A126961
:101ED0008243104B1A6170471249403908607047BD
:101EE0000F49C86470470B49C87170470948406A78
:101EF00040F0807007494862704701460020054A5B
:101F000092680A400AB1012000E0002070470149B0
:101F100088727047001002400000FFF8FFFFF6FED5
:101F2000000042428004424200127A0000093D0053
:101F3000A8000020B800002010B50446FE488442E6
:101F400008D10121C014FFF7ADFF0021E014FFF715
:101F5000A9FFC4E0B4F1804F08D101210846FFF782
:101F6000AEFF00210120FFF7AAFFB8E0F34884424A
:101F700008D101210220FFF7A2FF00210220FFF774
:101F80009EFFACE0EE48844208D101210420FFF717
:101F900096FF00210420FFF792FFA0E0E948844269
:101FA00008D101210820FFF78AFF00210820FFF750
:101FB00086FF94E0E448844208D101211020FFF715
:101FC0007EFF00211020FFF77AFF88E0DF4884427F
:101FD00008D101212020FFF772FF00212020FFF708
:101FE0006EFF7CE0DA48844208D101214014FFF7FB
:101FF00059FF00216014FFF755FF70E0D548844277
:1020000009D10121C804FFF74DFF00214FF4002042
:10201000FFF748FF63E0D048844209D10121080559
:10202000FFF740FF00214FF48010FFF73BFF56E021
:10203000CA48844209D101214805FFF733FF002136
:102040004FF40010FFF72EFF49E0C548844208D145
:1020500001214020FFF733FF00214020FFF72FFF31
:102060003DE0C048844208D101218020FFF727FFCE
:1020700000218020FFF723FF31E0BB48844208D1D4
:1020800001218015FFF71BFF0021A015FFF717FFA7
:1020900025E0B648844209D101210804FFF702FF78
:1020A00000214FF48030FFF7FDFE18E0B048844275
:1020B00009D101214804FFF7F5FE00214FF400305B
:1020C000FFF7F0FE0BE0AB48844208D10121880401
:1020D000FFF7E8FE00214FF48020FFF7E3FE10BD7C
:1020E00000220288944B98420ED0994B98420BD014
:1020F000B0F1804F08D0914B984205D0904B984258
:1021000002D0904B984204D14FF68F731A404B88FF
:102110001A438D4B984207D08C4B984204D04FF60F
:10212000FF431A40CB881A4302808B8883850B8833
:102130000385814B98420BD0854B984208D08B4B3E
:10214000984205D08A4B984202D08A4B984201D1DE
:102150000B7A038601238382704770B50024002226
:102160000023058C4FF6FE7635400584028C83886B
:10217000048B4FF68F752C40B51E2C400D882C43D8
:10218000751E2A400D892A434D882A436A4DA8426C
:102190000BD06F4DA84208D0744DA84205D0744DA5
:1021A000A84202D0734DA84213D14FF6F7752A40CA
:1021B0004D892A434FF6FB752A408D882A434FF6F6
:1021C000FF652B404FF6FF552B408D892B43CD8962
:1021D0002B4383800483CD888586028470BD70B5CF
:1021E000002400220023058C4FF6EF76354005844D
:1021F000028C8388048B48F6FF752C404FF6FF4510
:102200002C400D884FF6FF7606EA05252C434FF645
:10221000DF752A400D8906EA05152A434D8806EA2E
:1022200005152A43444DA84202D0494DA8421DD16C
:102230004FF67F752A404D894FF6FF7606EA051561
:102240002A434FF6BF752A408D8806EA05152A43B2
:102250004FF6FF352B404FF2FF752B408D8906EA74
:1022600085052B43CD8906EA85052B4383800483AE
:10227000CD880587028470BD70B50024002200233C
:10228000058C4FF6FF6635400584028C8388848B6D
:102290004FF68F752C404FF6FC752C400D882C4363
:1022A0004FF6FF552A400D894FF6FF7606EA0525C1
:1022B0002A434D8806EA05252A431F4DA84202D02D
:1022C000234DA8421DD14FF2FF752A404D894FF68C
:1022D000FF7606EA05252A434FF6FF352A408D880A
:1022E00006EA05252A434EF6FF752B404DF6FF758D
:1022F0002B408D8906EA05152B43CD8906EA051585
:102300002B4383808483CD888587028470BD70B51C
:10231000002200230024058C4EF6FF76354005840C
:10232000038C8488828B48F6FF752A404FF6FF4560
:102330002A400D8820E00000002C014000040040ED
:1023400000080040000C0040001000400014004055
:1023500000340140004C0140005001400054014055
:1023600000180040001C00400020004000400140D8
:1023700000440140004801404FF6FF7606EA05257B
:102380002A434DF6FF752B400D8906EA05352B4390
:102390004D8806EA05352B43FA4DA84202D0FA4D86
:1023A000A84208D14BF6FF752C408D894FF6FF7679
:1023B00006EA85152C4384808283CD88A0F840509E
:1023C000038470BD828B4FF2FF331A408283828B6D
:1023D0004FF6FF7303EA01231A4382837047F0B577
:1023E0000C461546002200210026078C4EF6FF7C85
:1023F00007EA0C070784828B018C4FF6FF7707EA08
:10240000043640F6FF473A404FF6FF7707EA0527C4
:102410003A434FF6FF7707EA03373A43D94FB842BA
:102420000ED0D94FB8420BD0B0F1804F08D0D74F63
:10243000B84205D0D64FB84202D0D64FB84206D1E6
:102440004DF6FF77394046F48057394305E047F6AB
:10245000FF57394044F48057394382830184F0BDEB
:10246000828B4FF6F3731A408283828B0A438283F6
:102470007047F0B50C461546002200210026078C57
:102480004FF6FF6C07EA0C070784828B018C4FF62E
:10249000FF7707EA04264FF60C773A404FF6FF77AE
:1024A00007EA03172F433A43B64FB8420ED0B64F50
:1024B000B8420BD0B0F1804F08D0B44FB84205D02D
:1024C000B34FB84202D0B34FB84206D14FF6FF57D0
:1024D000394046F48077394305E04FF2FF573940E1
:1024E00044F48077394382830184F0BD028B4FF23C
:1024F000FF331A400283028B4FF6FF7303EA012376
:102500001A4302837047F0B50C461546002200219D
:102510000026078C4FF6EF7C07EA0C070784028B36
:10252000018C4FF6FF7707EA041640F6FF473A4062
:102530004FF6FF7707EA03373A434FF6FF7707EA8C
:1025400005273A438F4FB8420ED08F4FB8420BD079
:10255000B0F1804F08D08D4FB84205D08C4FB842B3
:1025600002D08C4FB84206D14FF6DF77394046F0A3
:102570001007394305E04FF65F77394044F0100704
:10258000394302830184F0BD028B4FF6F3731A4086
:102590000283028B0A4302837047F0B50C4615464E
:1025A00000220021068C4FF6FE773E400684028B07
:1025B000018C4FF60C7632407E1C06EA03162E4341
:1025C0003243704EB0420ED06F4EB0420BD0B0F1DD
:1025D000804F08D06D4EB04205D06D4EB04202D053
:1025E0006C4EB04206D14FF6FD76314044F0010604
:1025F000314305E04FF6F576314044F001063143B2
:1026000002830184F0BD70B505460C465D488542E5
:102610000ED05D4885420BD0B5F1804F08D05B48A5
:10262000854205D05A48854202D05A48854200D199
:1026300000E000BF208850B92389A288618828461D
:10264000FFF7ABFFE1882846FFF79EFF25E02088D3
:1026500004280AD12389A28861882846FFF753FFFE
:10266000E1882846FFF742FF17E0208808280AD1B2
:102670002389A28861882846FFF7FBFEE188284667
:10268000FFF7EEFE09E02389A28861882846FFF75C
:10269000A6FEE1882846FFF795FE70BD2DE9F041C2
:1026A00005460C4600260127608808B9022600E08E
:1026B0000026A088012801D1022700E001272088F8
:1026C000A0B92389A28861882846FFF766FFE188C0
:1026D0002846FFF759FF23893A4631462846FFF737
:1026E00012FFE1882846FFF701FF13E02389A28843
:1026F00061882846FFF707FFE1882846FFF7F6FEC6
:1027000023893A4631462846FFF747FFE1882846A5
:10271000FFF73AFFBDE8F0810A884B881A438B889F
:102720001A43CB881A430B891A434B891A438B8966
:102730001A43A0F8442070474FF6FF7181800021B2
:102740000180C18041800172704700210180418079
:102750008180C180018141818181C18170470021D7
:1027600001804180012181800021C1800181704769
:102770000021018041808180C1800181418181816E
:1027800070470000002C014000340140000400406C
:1027900000080040000C004021B1028842F0010214
:1027A000028004E002884FF6FE731A4002807047F0
:1027B00031B1B0F8442042F40042A0F8442005E0D2
:1027C000B0F84420C2F30E02A0F8442070471AB1BA
:1027D00083890B43838102E083898B438381704724
:1027E0008182704741EA0203A0F8483070471AB16D
:1027F00083890B43838102E083898B438381704704
:1028000001894FF6F8721140018170470A46002194
:1028100001894FF68F73194011430181704730B51C
:1028200004460D4629462046FFF7F0FF208940F078
:102830000700208130BD2DE9F04104460D461646C3
:102840001F46602D06D13B46012231462046FFF748
:102850005AFE05E03B46012231462046FFF79DFE29
:1028600029462046FFF7D2FF208940F0070020814B
:10287000BDE8F08130B50C4600210189C9B24FF6A0
:10288000FF7505EA0325154325432943018130BD22
:102890002DE9F04105460E4617469846002443466A
:1028A0003A4631462846FFF7E5FF2C894FF6F87087
:1028B000044044F007044FF68F70044044F0700465
:1028C0002C81BDE8F081F0B504460D4616461F4642
:1028D0003B46324629462046FFF7CCFF208940F48C
:1028E00080402081F0BD0185828270470A46002128
:1028F00001884FF68F731940114301807047F0B57E
:102900000C4615461E460021002200230189028B39
:10291000038C4FF6F877394021434FF6FC473A4095
:1029200040F201173A434FF6DD773B404FF6FF7711
:1029300007EA06172F433B43018102830384F0BD5E
:102940000A460021018B4FF68F7319401143018312
:1029500070470A460021018B48F6FF7319404FF675
:10296000FF7303EA02231943018370470A460021DB
:10297000818B4FF68F7319401143818370470A464C
:102980000021818B48F6FF7319404FF6FF7303EA6D
:10299000022319438183704721B1028842F08002EB
:1029A000028004E002884FF67F731A40028070476D
:1029B00021B1828842F00402828004E082884FF6CE
:1029C000FB731A408280704721B1828842F008026E
:1029D000828004E082884FF6F7731A408280704745
:1029E00021B1828842F00102828004E082884FF6A1
:1029F000FE731A40828070470A460021018B4FF611
:102A0000F77319401143018370470A460021018B77
:102A10004FF2FF7319404FF6FF7303EA0223194385
:102A2000018370470A460021818B4FF6F7731940E6
:102A30001143818370470A460021818B4FF2FF7357
:102A400019404FF6FF7303EA02231943818370474D
:102A50000A460021018B4FF6FB7319401143018395
:102A600070470A460021018B4FF6FF3319404FF69D
:102A7000FF7303EA02231943018370470A460021CA
:102A8000818B4FF6FB7319401143818370470A46CF
:102A90000021818B4FF6FF3319404FF6FF7303EA95
:102AA00002231943818370470A460021018B4FF6A8
:102AB0007F7319401143018370470A460021018B3F
:102AC000C1F30E014FF6FF7303EA0223194301839A
:102AD00070470A460021818B4FF67F7319401143DE
:102AE000818370470A460021818BC1F30E014FF6A6
:102AF000FF7303EA02231943818370470A460021CA
:102B0000018C4FF6FD7319401143018470470A464A
:102B10000021018C4FF6F77319401143018470476F
:102B20000A460021018C4FF6DF7319404FF6FF7300
:102B300003EA02131943018470470A460021018CFD
:102B40004FF67F7319404FF6FF7303EA02131943E0
:102B5000018470470A460021018C4FF6FF5319404B
:102B60004FF6FF7303EA02231943018470470A46B4
:102B70000021018C4FF2FF7319404FF6FF7303EAF7
:102B800002231943018470470A460021018C4DF647
:102B9000FF7319404FF6FF7303EA023319430184B0
:102BA000704730B5002301248C40A3B2048C9C43B1
:102BB0000484048C02FA01F5ADB22C43048430BDC8
:102BC00030B5002304248C40A3B2048C9C430484BD
:102BD000048C02FA01F5ADB22C43048430BD70B50B
:102BE0000346002000241846183001258D40ACB261
:102BF0001D8CA5431D8409B1082909D100EB610092
:102C0000056825F0700505600568154305600EE050
:102C10000D1FC5F34E052844056825F4E045056001
:102C200005684FF6FF7606EA02263543056070BD5B
:102C300021B1028842F00202028004E002884FF6CD
:102C4000FD731A400280704721B1028842F00402ED
:102C5000028004E002884FF6FB731A40028070473E
:102C600021B1828842F08002828004E082884FF69F
:102C70007F731A408280704702884FF6F7731A40BC
:102C8000028002880A430280704782884FF68F7361
:102C90001A40828082880A438280704702894FF6F8
:102CA000F8731A40028102890A430281704702893F
:102CB0004FF67F731A40028102890A4302817047EE
:102CC000818470478185704781867047018770478E
:102CD00081877047A0F84010704702884FF6FF4385
:102CE0001A40028002880A43028070470146888E9B
:102CF00070470146088F70470146888F704701462C
:102D0000B1F8400070470146888C70470146088D35
:102D1000704702460020138A0B400BB1012000E0EF
:102D200000207047CA430282704730B50246002037
:102D300000230024158A05EA0103958905EA0104A8
:102D400013B10CB1012000E0002030BDCA43028263
:102D50007047000010B50446FB48844209D10121A8
:102D60008803FFF79FF800214FF48040FFF79AF89F
:102D700032E0F648844209D101214804FFF79FF868
:102D800000214FF40030FFF79AF825E0F048844224
:102D900009D101218804FFF792F800214FF4802027
:102DA000FFF78DF818E0EB48844209D10121C804EF
:102DB000FFF785F800214FF40020FFF780F80BE0C3
:102DC000E548844208D101210805FFF778F8002181
:102DD0004FF48010FFF773F810BD2DE9F04786B06F
:102DE00005460E460024A24600BFA1460027B08932
:102DF00000B100BF2F462C8A4CF6FF700440F088CB
:102E000004432C82AC894EF6F3100440B08831891B
:102E10000843718908430443AC81AC8A4FF6FF40F4
:102E20000440B0890443AC8201A8FEF7B4FFC64851
:102E3000874202D1DDF810A001E0DDF80CA0A889DE
:102E400000F4004040B10AEBCA0000EB0A10316800
:102E50004900B0FBF1F807E00AEBCA0000EB0A10EA
:102E600031688900B0FBF1F86420B8FBF0F0040190
:102E70002009642101FB1089A88900F4004040B1B9
:102E8000322000EBC900B0FBF1F000F00700044372
:102E900008E0322000EB09106421B0FBF1F000F0F3
:102EA0000F0004432C8106B0BDE8F0874FF41651A3
:102EB000016000218180C18001810C2141810021BC
:102EC0008181704710B502460020108A4FF2FF033F
:102ED00018400B884C8823438C882343CC88234399
:102EE0001843108210BD0021018041808180C18083
:102EF000704721B1828942F40052828104E08289C4
:102F00004DF6FF731A4082817047F0B503460024E6
:102F100000260025002040F66A17B94200D100BF04
:102F20001846C1F3421401F01F06012707FA06F5FF
:102F3000012C01D10C3004E0022C01D1103000E052
:102F400014301AB107682F43076002E00768AF43E7
:102F50000760F0BD1AB1838A0B43838202E0838A43
:102F60008B4383827047028A4FF6F0731A400282C5
:102F7000028A0A430282704782894FF2FF731A4025
:102F8000828182890A438281704721B1828942F01D
:102F90000202828104E082894FF6FD731A40828129
:102FA0007047028A4FF6DF731A400282028A0A4390
:102FB0000282704721B1028A42F48042028204E018
:102FC000028A4BF6FF731A4002827047C1F308026F
:102FD0008280704701468888C0F308007047818965
:102FE00041F0010181817047028BD2B20283028BD2
:102FF00042EA012202837047028B02F47F4202837D
:10300000028B0A430283704721B1828A42F0200278
:10301000828204E0828A4FF6DF731A408282704710
:1030200021B1828A42F01002828204E0828A4FF645
:10303000EF731A408282704721B1828A42F00802FF
:10304000828204E0828A4FF6F7731A4082827047C8
:1030500021B1828942F40042828103E08289C2F375
:103060000E028281704721B1828A42F4006282821C
:1030700004E0828A4FF2FF731A4082827047828A8C
:103080004FF6FB731A408282828A0A43828270471B
:1030900021B1828A42F00202828204E0828A4FF6E3
:1030A000FD731A408282704702460020B1F5007F0E
:1030B00000D100BF13880B400BB1012000E00020BD
:1030C000704701F40072B2F5007F00D100BFCA431F
:1030D0000280704770B502460024002300250020BE
:1030E00040F66A16B14200D100BFC1F3421501F0AB
:1030F0001F03012606FA03F3012D02D196893340FE
:1031000006E0022D02D1168A334001E0968A334050
:103110000C12012606FA04F41688344013B10CB1DF
:10312000012000E0002070BD10B50022002340F611
:103130006A14A14200D100BF0A1201249440A3B234
:10314000DC43048010BD0000003801400044004012
:1031500000480040004C00400050004006488047B6
:1031600006480047FEE7FEE7FEE7FEE7FEE7FEE76C
:10317000FEE7FEE7FEE7FEE74D0A0008ED00000867
:1031800010B50821F948FEF744FC1021F748FEF776
:1031900040FC1021F548FEF73EFC0821F348FEF7FD
:1031A0003AFC10BD10B50821F048FEF732FC1021A2
:1031B000EE48FEF730FC1021EC48FEF72AFC10BD6B
:1031C00010B50821E948FEF724FC0821E748FEF77E
:1031D00022FC10BD2DE9F04105462C460821E348AC
:1031E000FEF719FC002619E0274607F08007802F1C
:1031F00004D11021DD48FEF70CFC03E01021DB4870
:10320000FEF709FC6006040E0821D848FEF701FC11
:103210000821D648FEF7FFFB701CC6B2082EE3DB80
:10322000BDE8F08110B50446FFF7AAFF7820FFF74C
:10323000D1FFFFF7C5FF0020FFF7CCFFFFF7C0FF6E
:103240002046FFF7C7FFFFF7BBFFFFF7ABFF10BD3F
:1032500010B50446FFF794FF7820FFF7BBFFFFF798
:10326000AFFF4020FFF7B6FFFFF7AAFF2046FFF7AA
:10327000B1FFFFF7A5FFFFF795FF10BD70B504463E
:103280000D461DB1E0B2FFF7E3FF02E0E0B2FFF749
:10329000C9FF70BD70B50646002418E004F1B00007
:1032A0000021FFF7EBFF00210846FFF7E7FF0021B1
:1032B0001020FFF7E3FF002505E001213046FFF76E
:1032C000DDFF681CC5B2802DF7DB601CC4B2082C82
:1032D000E4DB70BD06E041F6650100E0491E00290F
:1032E000FCD1401E0028F6D17047014605E00020C1
:1032F00001E0421CD0B27B28FBDB0A00A1F10101F6
:10330000F5D1704770B504460D4605F1B0000021B7
:10331000FFF7B4FF102141EA14100021FFF7AEFFC0
:1033200004F00F000021FFF7A9FF70BD10B50021C8
:103330008D20FFF7A3FF00211420FFF79FFF00213E
:10334000AF20FFF79BFF10BD10B500218D20FFF7C8
:1033500095FF00211020FFF791FF0021AE20FFF71D
:103360008DFF10BD70B5002418E004F1B0000021FD
:10337000FFF784FF00210846FFF780FF002110209F
:10338000FFF77CFF002505E001210020FFF776FF15
:10339000681CC5B2802DF7DB601CC4B2082CE4DBCE
:1033A00070BD70B5002418E004F1B0000021FFF7F3
:1033B00065FF00210846FFF761FF00211020FFF79D
:1033C0005DFF002505E001210846FFF757FF681C57
:1033D000C5B2802DF7DB601CC4B2082CE4DB70BDE5
:1033E0002DE9F04707460E469046994600250024F1
:1033F000A8F12000C5B27F2F02DD0027B01CC6B2A5
:10340000B9F1100F24D131463846FFF77BFF002475
:1034100008E004EB0511564A505C0121FFF72EFF2E
:10342000601CC4B2082CF4DB701CC1B23846FFF734
:1034300069FF002409E004EB051108314C4A505C97
:103440000121FFF71BFF601CC4B2082CF3DB12E064
:1034500031463846FFF756FF00240AE005EB4501E8
:10346000444A02EB4101085D0121FFF707FF601CA0
:10347000C4B2062CF2DBBDE8F08710B5024601208D
:1034800000E050430B00A1F10104E1B2F9D110BDFD
:103490002DE9FF5F074691461E460E9D4FF0000A3C
:1034A000002435E0301B401EC1B20A20FFF7E5FFC3
:1034B000B9FBF0F00A21B0FBF1F201FB1208BAF1FE
:1034C000000F14D1701EA04211DDB8F1000F0CD115
:1034D000AB4605EBDB71491001FB0471C8B22B460A
:1034E00020220199FFF77CFF10E04FF0010AAB4664
:1034F00005EBDB71491001FB0471C8B208F1300122
:10350000CAB22B460199FFF76BFF00BF601CC4B223
:10351000B442C7DBBDE8FF9F2DE9F04104460F46EA
:103520001546984600260FE0AA5D434639462046D8
:10353000FFF756FF04F10800C4B2782C02DD002426
:10354000B81CC7B2701CC6B2A85D0028ECD1BDE89B
:10355000F0812DE9F04180460E46154600273146A0
:103560004046FFF7CFFE002411E0000000140140A8
:1035700025560008FD530008734A02EB8511085DCB
:103580000121FFF77BFE781CC7B2601CC4B2102C6F
:10359000F2DB701CC1B24046FFF7B4FE00240CE021
:1035A0006900491C684A02EB4111085D0121FFF7DF
:1035B00065FE781CC7B2601CC4B2102CF0DBBDE8FD
:1035C000F0812DE9F05F06460F4690461C46DDF877
:1035D00028A04FF0000BE11704EB5171C910A4EBC8
:1035E000C10131B92046E11704EB5171C1F3C705A0
:1035F00006E02046E11704EB5171C910491CCDB219
:103600003D4615E029463046FFF77CFEB1460BE00B
:1036100059460BF1010B1AF801000121FFF72EFEAC
:1036200009F1010000F0FF09C145F1DB681CC5B2DA
:10363000A542E7DBBDE8F09F08B501212020FEF799
:1036400017FC1820ADF8000010208DF803000320AF
:103650008DF8020069463D48FEF72EF918213B48D7
:10366000FEF7D7F94FF4487000F057FC0021AE2068
:10367000FFF704FE00210846FFF700FE002110209E
:10368000FFF7FCFD00214020FFF7F8FD0021B020EE
:10369000FFF7F4FD00218120FFF7F0FD0021FF205E
:1036A000FFF7ECFD0021A120FFF7E8FD0021A62097
:1036B000FFF7E4FD0021A820FFF7E0FD00213F20F7
:1036C000FFF7DCFD0021C820FFF7D8FD0021D32043
:1036D000FFF7D4FD00210846FFF7D0FD0021D520DB
:1036E000FFF7CCFD00218020FFF7C8FD0021D82086
:1036F000FFF7C4FD00210520FFF7C0FD0021D92000
:10370000FFF7BCFD0021F120FFF7B8FD0021DA2012
:10371000FFF7B4FD00211220FFF7B0FD0021DB20F0
:10372000FFF7ACFD00213020FFF7A8FD00218D2020
:10373000FFF7A4FD00211420FFF7A0FD0021AF201A
:10374000FFF79CFD08BD0000BC00002000140140F4
:1037500008B501211020FEF78BFBC020ADF800005A
:1037600010208DF8030003208DF8020069460E48F2
:10377000FEF7A2F801200D4908600D49C1F89C012F
:1037800008BD08B501211020FEF772FB0820ADF836
:10379000000010208DF8030003208DF80200694618
:1037A0000148FEF789F808BD001001409801224247
:1037B0000000224270B505460C4645F25550FEF712
:1037C000C9F92846FEF7C9F92046FEF7C9F9FEF700
:1037D000CAF9FEF7CDF970BD10B5FEF7C4F910BDFA
:1037E0007FB505460C4601210220FEF74EFBADF8E1
:1037F0000850ADF804400020ADF80A00ADF806000E
:1038000001A91648FEF76CFC012211461348FEF789
:10381000DEFF1D208DF8000000208DF80100032040
:103820008DF8020001208DF803006846FDF7E5FAE7
:1038300001210A48FEF7B0FF7FBD10B501210748FE
:10384000FFF773FA06490968884206D0FF20054948
:10385000087001210148FFF779FA10BD000400400B
:10386000A00121420000002010B56048006820F04F
:103870000F005E4908600846006840F003000860D9
:1038800000205B490860142000F047FB01205949E3
:10389000C1F880011E2000F01CFB10BD10B50024F3
:1038A0005248006820F00F00504908600846006840
:1038B00040F00800086004E0601CC4B2012000F081
:1038C00008FB4B488038006808B1642CF4DB642C9A
:1038D00001DB012010BD002404E0601CC4B2012003
:1038E00000F0F7FA42488038006808B9642CF4DB2D
:1038F000642C01DB0120EDE70020EBE710B500248C
:1039000004E0601CC4B2012000F0E3FA38488038BB
:10391000006808B1642CF4DB002404E0601CC4B22D
:10392000012000F0D6FA32488038006808B9642CCB
:10393000F4DB282000F0CDFA2D488038006808B16B
:10394000012010BD0020FCE770B50024002506E032
:103950006006040EFFF7D2FF0443681CC5B2082DB1
:10396000F6DB204670BD7CB505460E46FFF77CFFB2
:10397000FFF794FFF8B9002405E0FFF7E5FF0DF825
:103980000400601CC4B2052CF7DB9DF800009DF814
:10399000011008449DF8021008449DF803100844E3
:1039A0009DF80410884208D19DF8000030709DF801
:1039B0000200287001E001207CBD0020FCE708B572
:1039C00001210820FEF754FA0120ADF80000102074
:1039D0008DF8030003208DF8020069460348FDF7C7
:1039E0006BFFFFF741FFFFF759FF08BD000C0140D7
:1039F000808121420080214210B5C8A001F05CFA0C
:103A000010BD10B5C8A001F057FA0520CA490870CA
:103A100010BD10B5C9A001F04FFA10BD10B5CAA075
:103A200001F04AFA0220C449087010BD10B5CAA0BE
:103A300001F042FA10BD10B5CAA001F03DFA10BD68
:103A400010B5BD4890F82700401CBB4981F82700FD
:103A5000084690F82700142805DB002081F827008D
:103A6000C4A001F029FA10BD70B504460D462A46DF
:103A70002146C9A001F020FA70BD10B50446CCA0C3
:103A800001F01AFA10BD70B504460D462A462146CB
:103A9000CCA001F011FA70BD10B504462146D0A0AB
:103AA00001F00AFA10BD2DE9F14F8CB0D2A10C98AB
:103AB00000F026FD8146B9F1000F7DD0002406E01C
:103AC000A01C19F80000CD490855601CC4B2092C8F
:103AD000F6DBCBA10C9800F013FD8146B9F1000F85
:103AE000EBD0002407E0A01C19F80010C3480930EF
:103AF0000155601CC4B20A2CF5DB002406E0BF4867
:103B00000930015D0C300155601CC4B2032CF6DB9A
:103B1000032408E0B9480930025DE01EB7491F31AF
:103B20000A54601CC4B20A2CF4DBB44991F8251085
:103B3000A1F1300000F006FF8246B24900F0AEFD70
:103B4000AE49069091F82410A1F1300000F0FAFE81
:103B50008246AD4900F0A2FDA849049091F82310D7
:103B6000A1F1300000F0EEFEA849029000F096FDB1
:103B70008246A24991F82210A1F1300000F0E2FE45
:103B8000A349009000F08AFD9C49029091F8201012
:103B900030399A4AD27F303A02EB820201EB42007E
:103BA00000F0D0FE0190029900F0EEFC83465146F1
:103BB00000F0EAFC039000E0ADE0049900F0E4FCC2
:103BC0000590069900F0E0FC079000F0EEFE002260
:103BD000904BCDE9080100F046FECDE90A01874986
:103BE000497D303964225143844A927D303A02EB58
:103BF000820201EB42028149C97D3039501800F040
:103C0000AFFE0746DDE90A2300F086FD054600F019
:103C1000DFFE7A49C862002405E07848015D133070
:103C20000155601CC4B2022CF7DB022407E0734884
:103C3000025DA01E714918310A54601CC4B2092CDF
:103C4000F5DB6E49897FA1F1300000F07BFE05466F
:103C50006C4900F023FD69490490497FA1F13000CF
:103C600000F070FE8046684900F018FD634902903C
:103C7000097FA1F1300000F065FE8346634900F042
:103C80000DFD80465D49C97EA1F1300000F05AFE6D
:103C90005F49009000F002FD83465849497E303963
:103CA000564A127E303A02EB820201EB420000F0EB
:103CB00049FE5946019000F067FC8246414600F0FB
:103CC00063FC0546029900F05FFC0390049900F044
:103CD0005BFC059000F069FE00224E4BCDE9060129
:103CE00000F0C1FDCDE908014449097D3039434A5E
:103CF000D27C303A02EB820201EB420000F030FE4F
:103D00000646DDE9082300F007FDCDE90A0100F0D1
:103D10005FFE3A4988620DB0BDE8F08F41542B43F5
:103D20004553510D0A00000041542B514D54444954
:103D300053433D300D0A00001008002041542B432E
:103D4000494D490D0A00000041542B43474154544A
:103D50003D310D0A0000000041542B4347415454AB
:103D60003F0D0A0041542B51534F433D312C312C10
:103D7000310D0A0041542B514D544F50454E3D30AA
:103D80002C22312E3131362E3138302E3133302243
:103D90002C313838330D0A0041542B514953454ECC
:103DA0004445583D302C25732C25730D0A00000026
:103DB00041542B514D54434F4E4E3D302C69640DB0
:103DC0000A00000041542B514D545055423D302CB7
:103DD000302C302C302C25732C222573220D0A0018
:103DE00041542B514D545355423D302C312C2573A9
:103DF0002C310D0A00000000412C0000A808002012
:103E00004E2C000000401C4600007A440000C842CE
:103E10000000204100004E401FB501214020FEF768
:103E200027F801210846FEF723F848208DF80700FF
:103E30000120ADF8040001A91748FDF73DFD002160
:103E40000420FDF74FFE0120029000208DF80C00A9
:103E50000C208DF80D0001208DF80E0002A8FDF752
:103E60006DF906208DF800000F208DF801008DF807
:103E7000020001208DF803006846FCF7BEFF1FBD5D
:103E800010B50120FDF7C0F920B1012003490870E9
:103E9000FDF7CBF910BD0000001801403F030020E2
:103EA00010B56FF00400FCF7F2FF2E4800682E49B1
:103EB000B0FBF1F02D4908700846007800EB400196
:103EC000C1EBC0104FF6FF7101EAC000284908801D
:103ED00010BD0146254A12784A434FF0E0235A614B
:103EE00000229A611A46126942F001021A6100BF6B
:103EF0004FF0E022106900F001021AB100F48032A4
:103F0000002AF5D04FF0E022126922F001024FF0B2
:103F1000E0231A6100229A6170470146144A128810
:103F20004A434FF0E0235A6100229A611A4612690F
:103F300042F001021A6100BF4FF0E022106900F068
:103F400001021AB100F48032002AF5D04FF0E022CD
:103F5000126922F001024FF0E0231A6100229A61F7
:103F6000704700002000002000127A00400300206B
:103F70004203002000BF704700BFFE4A128802F0D3
:103F80004002002AF9D0C2B2FA4B1B1D1A807047BA
:103F900010B586B00446012144F20400FDF768FF25
:103FA000F548FEF7D7FE4FF40070ADF8140003207B
:103FB0008DF8160018208DF8170005A9EF48FDF7B9
:103FC0007BFC4FF48060ADF8140048208DF817009A
:103FD00005A9EA48FDF770FC25208DF800000320B4
:103FE0008DF801008DF8020001208DF8030068466D
:103FF000FCF703FF01940020ADF80800ADF80A00BB
:10400000ADF80C00ADF810000C20ADF80E0001A9C1
:10401000D948FEF7E2FE012240F22551D648FEF7CC
:1040200074FF0121D448FEF764FF06B010BD10B53F
:1040300086B0044601210420FDF71AFF012148043F
:10404000FDF723FFCB48FEF785FE0420ADF81400F2
:1040500003208DF8160018208DF8170005A9C74811
:10406000FDF72AFC0820ADF8140004208DF8170095
:1040700005A9C248FDF720FC26208DF8000003208A
:104080008DF801008DF8020001208DF803006846CC
:10409000FCF7B3FE01940020ADF80800ADF80A006B
:1040A000ADF80C00ADF810000C20ADF80E0001A921
:1040B000B048FEF792FE012240F22551AD48FEF7CE
:1040C00024FF0121AB48FEF714FF06B010BD10B568
:1040D00086B0044601210820FDF7CAFE01218804AC
:1040E000FDF7D3FEA648FEF735FE4FF48060ADF82D
:1040F000140003208DF8160018208DF8170005A96C
:10410000A048FDF7D9FB4FF40060ADF8140004207F
:104110008DF8170005A99B48FDF7CEFB27208DF8E9
:10412000000000208DF8010001208DF802008DF8BC
:1041300003006846FCF761FE01940020ADF808001A
:10414000ADF80A00ADF80C00ADF810000C20ADF889
:104150000E0001A98A48FEF740FE012240F22551D7
:104160008748FEF7D2FE01218548FEF7C2FE06B061
:1041700010BD00B58BB0002240F225518048FEF7FB
:10418000C4FE01210846FDF766FEC820039000200A
:1041900006900790049080200590002008900A90D7
:1041A00079480190002002904FF4805009907448A3
:1041B000001D009069467548FCF72AFF0122402146
:1041C0006F48FEF7C7FE01217048FCF74CFF0BB0AB
:1041D00000BD00B58BB0002240F225516548FEF7C6
:1041E00094FE01210846FDF736FEC820039000200A
:1041F00006900790049080200590002008900A9077
:1042000063480190002002904FF480500990594873
:10421000001D009069465D483C30FCF7F9FE012224
:1042200040215448FEF796FE012158483C30FCF7E7
:104230001AFF0BB000BD0BE000BF4F49098801F029
:1042400040010029F9D001784B4A121D1180401C11
:1042500001780029F0D1704710B500220DE000BFB1
:10426000454B1B8803F04003002BF9D00378424CE8
:10427000241D2380401C531CDAB28A42EFDB10BDA0
:1042800010B540F225513C48FEF724FF18B13A48DA
:10429000FEF7A0FEC4B210BD10B540F2255135485E
:1042A000FEF718FF58B13348FEF794FEC1B2394803
:1042B00002780078401C374B18703748815410BD85
:1042C00010B540F225512E48FEF704FF58B12C4896
:1042D000FEF780FEC1B22F4802780078401C2D4BBB
:1042E00018702D4881542B480078C82802DB002024
:1042F0002849087010BD70B5054624483038406B19
:10430000C0F1C804002C12DD00212048FCF7ABFEF0
:1043100022461D49284600F0C3F81B481B49303986
:10432000C863C820486301211848FCF79CFE20465A
:1043300070BD70B5054615483038006FC0F1C8042F
:10434000002C14DD002111483C30FCF78CFE224685
:104350000F49284600F0A4F80D480C493039886709
:10436000C8200867012109483C30FCF77CFE204644
:1043700070BD0000004400400038014000080140CA
:1043800000480040000C0140840D00203000024035
:104390004C0E00204C030020780F00202DE9F04F38
:1043A000C1B007460E4614461D461C2230A13AA84D
:1043B00000F076F8284600F0E4FA039000F0CBFA1B
:1043C0008346294600F035F98246304900F034F939
:1043D000814600F0D6FA0690284600F0D2FA059001
:1043E000204600F0CEFA039000F0B5FA834621464D
:1043F00000F01FF98246254900F01EF9814600F0C1
:10440000C0FA8046204600F0BCFA0490DDE90510B1
:10441000CDE90081029032463AA908A8049B00F039
:104420005BFD08A800F07EF880B2079008A9384626
:10443000079A00F035F841B0BDE8F08FF0B5B7B09D
:1044400006460C46154612A30FCB33AF0FC72B46BB
:10445000224633A901A800F03FFD01A800F062F850
:1044600087B23A4601A9304600F01AF837B0F0BDDD
:1044700073656E64446174612C25732C25642E254C
:104480003036642C25642E253036640000247449AF
:1044900073656E64526563762C25732C257300005A
:1044A00040EA01039B0703D009E008C9121F08C0B6
:1044B000042AFAD203E011F8013B00F8013B521E36
:1044C000F9D27047D2B201E000F8012B491EFBD2AD
:1044D00070470022F6E710B513460A46044619460F
:1044E000FFF7F0FF204610BD421E12F8013F002BDF
:1044F000FBD111F8013B02F8013B002BF9D17047C9
:1045000030B505462A460B4612F8010B13F8014B4D
:1045100008B1A042F8D01CB1002802D06D1CF1E710
:10452000284630BD421C10F8011B0029FBD1801A1F
:104530007047034611F8012B00F8012B002AF9D12E
:104540001846704770B50F4D00B92868002412E076
:104550000A4602E09E4203D0521C1378002BF9D188
:10456000DAB2224305D02BB124B1002100F8011B9F
:1045700004E00446401C0678002EE9D1286020465D
:1045800070BD000050030020F0B480EA0102D40F97
:104590004200B2EB410F02D20246084611464A00E1
:1045A00042D0C30DDDB2C1F3C752AD1A202D35DAAA
:1045B000C1F3160141F4000204B15242C5F12006D4
:1045C00002FA06F12A411044B3EBD05F23D0C4B104
:1045D000012DA0EBC35009DCF0BC4FF0004202EA11
:1045E000C352DBB200F5000000F069BA400000F1F0
:1045F000807000EBC350A0F1807040EAD170490098
:1046000009E0490841EAC071A0EBC35000F5000081
:10461000400800EBC350F0BC00F048BA61420122F0
:1046200002EB4101001BF6E7F0BC704781F000414E
:10463000AAE780F00040A7E780EA010210B502F087
:104640000043400022D04A001FD0010E01EB12614E
:10465000C0F35600C2F3560240F4000042F40002D8
:10466000A0FB022000047F39140400D0401C50EA53
:10467000124001D44000491EC2B20C0604EBD01017
:10468000401C4008802A02D003E0002010BD20F02A
:104690000100002900DA0020184310BD30B480EA80
:1046A000010202F0004530F0004221F0004013D03A
:1046B00090B1C30DD40DC2F31601C0F31600E41A75
:1046C00041F4000140F400027D34914201D3641CA6
:1046D00000E04900002C02DA30BC002070474FF4A3
:1046E00000000023914201D3891A034340084FEA96
:1046F0004101F7D151B1914202D14FF0004105E0A3
:1047000002D24FF0010101E06FF0010103EBC45050
:10471000284430BC00F0CAB92DE9FE4F804681EA3A
:104720000300C00F0C46009021F0004123F000452B
:10473000B8EB0200A94105D24046214690461C46EE
:104740000B46024623F00040104347D0270DC7F325
:104750000A00C3F30A510290401A019040286BDA14
:10476000C3F3130040F4801B0098924620B100234D
:10477000D2EB030A63EB0B0B01985946C0F14002E0
:10478000504600F072F906460D4650465946019AC9
:1047900000F07AF910EB08006141002487EA115219
:1047A00084EAE7731A4340D0009A62B3019A012A5F
:1047B0004FEA075215DC001B61EB02014FF000428B
:1047C00002EA0752CDE90042001C41F58011324651
:1047D0002B4600F0B1F903B0BDE8F08F404621460A
:1047E000F9E7001B61EB0201001C41F58013001882
:1047F0005B412018A2F5001747EB030140EAD57092
:10480000B6196D4111E06D084FEA360645EAC075EC
:104810004FEA0752001B61EB0201001C41F58011B9
:1048200049084FEA30000019514132462B4603B087
:10483000BDE8F04F00F071B900980122400000235C
:10484000D0EB020263EBE073009821464FEAE0747C
:10485000B8EB000061EB0401E9E783F000435BE79C
:1048600081F0004158E72DE9F04D81EA030404F09E
:10487000004B21F0004514464FF0000A23F00041A0
:1048800050EA050220D054EA01021DD0C5F30A57B0
:104890000246C5F31303C1F31300C1F30A5640F4F3
:1048A000801543F48013A7EB0608101BD64608F2C8
:1048B000FD3873EB050002D308F1010801E09218FE
:1048C0005B41B8F1000F03DA00200146BDE8F08D2E
:1048D00000204FF48011064684460EE0171B73EB50
:1048E000050705D3121B63EB050306434CEA010CD5
:1048F00049084FEA300092185B4150EA0107EDD1B8
:1049000052EA030012D082EA040083EA0501084358
:1049100005D0101BAB4106D20122002306E0002285
:104920004FF0004302E06FF0010253101AEB060053
:104930004CEB085110EB0A0041EB0B01BDE8F04DC8
:1049400000F0EBB8C10F80EAE0700844CA07962374
:10495000002100F0B4B896230022114600F0AFB851
:104960000EB5C10F80EAE0700844CA07002140F28A
:1049700033438DE80E000A460B4600F0DDF803B025
:1049800000BD20F00040C10DC0F3160040F400004F
:104990007F2901DA00207047962903DCC1F19601D6
:1049A000C840704796398840704700F0004230F0A8
:1049B00000400AD0C10D01F56071C0F3160042EA53
:1049C0000151C2084007114370470020014670475B
:1049D00001F0004330B421F0004150EA010206D05A
:1049E0000A0DA2F56072C1F31301002A02DC30BC8B
:1049F00000207047440F44EAC104C100E01830BCF5
:104A000000EBC25000F052B82DE9F05F05460020DF
:104A100092469B4688460646814640241BE028462F
:104A200041464746224600F0E7F853465A46C01A28
:104A3000914110D311461846224600F016F82D1A5F
:104A400067EB01084F4622460120002100F00DF8D7
:104A500017EB00094E41201EA4F10104DFDC48469B
:104A600031462A464346BDE8F09F202A04DB203A1F
:104A700000FA02F1002070479140C2F1200320FAB1
:104A800003F3194390407047202A06DBCB17203AE6
:104A900041FA02F043EAE07306E041FA02F3D04043
:104AA000C2F1200291400843194670470029A8BF6F
:104AB0007047401C490008BF20F00100704710B447
:104AC000B0FA80FC00FA0CF050EA010404BF10BCFC
:104AD000704749B1CCF1200421FA04F411FA0CF129
:104AE00018BF012121430843A3EB0C01CB1D4FEA62
:104AF00000614FEA102042BF002010BC704700EB5D
:104B0000C35010440029A4BF10BC7047401C49008A
:104B100008BF20F0010010BC704710B5141E73F1DF
:104B2000000408DA401C41F1000192185B411A436D
:104B300001D120F0010010BD2DE9F04D92469B46B9
:104B400011B1B1FA81F202E0B0FA80F2203290465F
:104B5000FFF78BFF04460F4640EA0A0041EA0B01CB
:104B600053465A46084313D0114653EA010019D060
:104B7000C8F14002504600F03FF805460E46504648
:104B800059464246FFF771FF084305D0012004E073
:104B900020463946BDE8F08D0020054346EAE07620
:104BA0002C4337430A986305E40AA0EB080000226F
:104BB000FD0A44EA47540A3002D500200146E9E7DD
:104BC000010510196941DDE9084500196941BDE891
:104BD000F04DA2E7064C074D06E0E06840F0010307
:104BE00094E8070098471034AC42F6D3FBF782FAFA
:104BF000385C0008585C0008202A04DB203A21FABF
:104C000002F00021704721FA02F3D040C2F12002E5
:104C1000914008431946704770B58C1810F8015B35
:104C200015F0070301D110F8013B2A1106D110F845
:104C3000012B03E010F8016B01F8016B5B1EF9D149
:104C40002B0705D40023521E0DD401F8013BFAE7CF
:104C500010F8013BCB1A921C03E013F8015B01F83A
:104C6000015B521EF9D5A142D8D3002070BD2DE9B9
:104C7000F04F0746884691461D46099E4FF0000AB0
:104C800000202870C3463B6834E013E0187810B960
:104C90000020BDE8F08F1878402803D14FF0010ABA
:104CA0005B1C08E01878242803D14FF0020A5B1C33
:104CB00001E05B1CEAE700BF184600F01CF830601A
:104CC00000240BE04C4502DD4FF0FF30E1E71BF81C
:104CD0000400195D884200D003E0641C3068A042E3
:104CE000F0DC00BF3068A04201D15046D1E72878FF
:104CF000401C2870C9E7014600200CE00A7802B980
:104D000070470A78402A00D1FAE70A78242A00D1AD
:104D1000F6E7491C401CF1E770B504460D4600203B
:104D200020606060E56022616361C4F818030021BF
:104D300004E0002604F118004654491CFF29F8DD60
:104D4000002104E0002604F58C704654491CB1F59E
:104D5000007FF7DB002070BD2DE9FE4F04464FF0C9
:104D6000000AD4F81803B0F5807F02D90020C4F8F7
:104D7000180304F58C70D4F818231118002210467B
:104D800023699847054615B90020BDE8FE8FD4F881
:104D90001803054404F58C76206808B90020F4E770
:104DA0003CE00020029001A802AB2A463146009068
:104DB0002046FFF75CFF8146B9F1010F0BD1019F3F
:104DC0003A4631469DF80800636998473E44ED1B1A
:104DD0004FF0010A22E0B9F1020F19D1606858B111
:104DE00029463046626800F031F80746002F00DAA5
:104DF0001BE0A068074400E0019F3A4631469DF859
:104E00000800636998473E44ED1B4FF0010A05E036
:104E100009F1010000B908E0761C6D1E002DC0D11B
:104E20000020C4F818035046AFE74FF0000807E031
:104E300016F8081004F58C7000F8081008F1010845
:104E4000A845F5DBC4F8185350469EE7F0B5054673
:104E50000F462C46002300E05B1CD05C0028FBD1F1
:104E6000002616E0207892F800C060450FD100219E
:104E700006E0605C12F801C0604500D002E0491C09
:104E80009942F6DB00BF994201D1601BF0BD641C62
:104E9000761CBE42E6DB4FF0FF30F7E710B50B465D
:104EA0000360426032B1002100E0491C545C002CD8
:104EB000FBD1816010BD00000FB4054B10B503A9F4
:104EC000044A029800F02CF810BC5DF814FB0000B6
:104ED000793F0008480300200FB4084B10B504A91F
:104EE00002AA039800F01CF8044602A9002000F072
:104EF00048FA204610BC5DF814FB000083530008FC
:104F000002E008C8121F08C1002AFAD17047704792
:104F1000002001E001C1121F002AFBD170470000F0
:104F20002DE9FF4F8DB00F460546002606E02528E7
:104F30000BD0DDE90F1290476D1C761C28780028F5
:104F4000F5D111B03046BDE8F08F0024A246A1464D
:104F50000122EC4900E0044315F8013F203B02FA2E
:104F600003F00842F7D128782A2810D06FF02F02DA
:104F70002878A0F13001092914D80AEB8A0102EB44
:104F8000410144F0020400EB010A6D1CF0E701CF7F
:104F90005FEA000A03D544F40054CAF1000A44F061
:104FA00002046D1C28782E2817D115F8010F44F043
:104FB00004042A280ED06FF02F022878A0F13001C7
:104FC00009290AD809EB890102EB410100EB01092B
:104FD0006D1CF2E757F8049B6D1C28786C280FD0E5
:104FE00006DC4C2817D068280DD06A2814D104E0BC
:104FF000742810D07A280FD10DE044F400140AE090
:1050000044F4801401E044F440146978814202D1F0
:1050100004F580146D1C6D1C2A786E2A1FD00CDCE0
:10502000632A31D004DC002A8BD0582A11D1A3E0A6
:10503000642A68D0692A0CD165E0732A2ED004DC7A
:105040006F2A73D0702A04D19BE0752A6FD0782A1A
:105050006ED01046DDE90F129047761C50E1C4F384
:105060000250022806D0032809D0042801CF09D015
:10507000066045E101CFF117C0E9006140E101CFD1
:1050800006803DE106703BE117F8040B8DF8000047
:1050900000208DF80100EB46012003E057F804BB27
:1050A0004FF0FF3061074FF0000102D40DE008F12E
:1050B0000101884649450FDA8045F8DB1BF80810E6
:1050C0000029F4D108E008F1010188468142FADBA9
:1050D0001BF808100029F6D1DDE90F23AAEB080020
:1050E0008146214600F036F9304400EB080604E022
:1050F000DDE90F121BF8010B9047B8F10108F7D258
:1051000021464846F7E00A21C4F302534FF0000B52
:105110000891022B04D001CFC117032B09D00AE05C
:10512000FF1D27F00707F7E8020108E032E01FE063
:1051300020E000B2C117042B01D140B2C117031EF9
:1051400071F1000307DA4FF0000CD0EB0C006CEBB0
:1051500001012D2302E0230504D52B238DF82430F3
:10516000012303E0E30701D02023F7E7984658E046
:105170000A2110E010210EE010204FF0000B0890E3
:105180000CE010214FF0000B44F004044FF008092C
:10519000089103E008214FF0000B0891C4F302537B
:1051A000022B04D001CF0021032B06D006E0FF1D07
:1051B00027F00707F7E8020103E080B2042B00D1D3
:1051C000C0B24FF0000823072BD5702A07D0DDF8B6
:1051D00020C08CF0100C5CEA0B0C05D00EE04023D4
:1051E0008DF82430012308E050EA010306D0302373
:1051F0008DF824308DF8252002239846DDF820C054
:105200008CF0080C5CEA0B0C0BD150EA010301D1C5
:10521000630706D530238DF824304FF00108A9F13B
:105220000109582A04D038A20B9208AA0A920BE06E
:105230003AA2F9E75B46089AFFF7E6FB0B9B9B5CFB
:105240000A9A521E0A92137050EA0102F2D10A9889
:10525000ADEB000000F1200B600702D524F4803490
:1052600001E04FF00109D94502DDA9EB0B0000E098
:10527000002000EB0B0141440890AAEB010AE00377
:1052800006D4DDE90F232146504600F063F80644BA
:105290004FF0000908E009A911F80900DDE90F1233
:1052A000904709F10109761CC145F4DBE0030CD5F8
:1052B000DDE90F232146504600F04CF8064404E097
:1052C000DDE90F1230209047761C0899481E08909F
:1052D0000029F5DC08E00A980A990078491C0A912F
:1052E000DDE90F129047761CBBF10001ABF1010B19
:1052F000F1DC21465046DDE90F2300F019F80644A1
:105300006D1C1BE609280100303132333435363745
:105310003839616263646566000000003031323301
:1053200034353637383941424344454600000000A1
:105330002DE9F041044600251E461746880404D492
:1053400005E039462020B0476D1C641EF9D528467B
:10535000BDE8F0812DE9F041044600251E46904647
:10536000C80301D5302700E02027880404D505E0D4
:1053700041463846B0476D1C641EF9D52846BDE845
:10538000F0810A68531C0B6010707047243436306B
:105390003131243436303034242B43474154543A8D
:1053A0002031242B43455351402B514D544F5045F0
:1053B0004E3A20302C30402B514D54434F4E4E3AF4
:1053C00020302C302C30402B514D545355423A2034
:1053D000302C312C302C31402B514D545055423A09
:1053E00020302C302C30242B514D54524543563A0A
:1053F000246F7264657224474E524D4300000000D2
:105400000000000000002F0000000007000700005F
:10541000147F147F1400242A7F2A12006264081368
:105420002300364955225000000503000000001CEF
:10543000224100000041221C000014083E08140014
:1054400008083E0808000000A060000008080808DE
:1054500008000060600000002010080402003E51B7
:1054600049453E0000427F400000426151494600EC
:105470002141454B31001814127F10002745454546
:1054800039003C4A49493000017109050300364999
:1054900049493600064949291E00003636000000F9
:1054A00000563600000008142241000014141414A1
:1054B000140000412214080002015109060032497B
:1054C00059513E007C1211127C007F494949360037
:1054D0003E41414122007F4141221C007F49494910
:1054E00041007F09090901003E4149497A007F08CE
:1054F00008087F0000417F4100002040413F01003B
:105500007F08142241007F40404040007F020C028F
:105510007F007F0408107F003E4141413E007F092B
:10552000090906003E4151215E007F091929460004
:1055300046494949310001017F0101003F40404097
:105540003F001F2040201F003F4038403F006314B1
:1055500008146300070870080700615149454300BB
:10556000007F41410000552A552A55000041417FE6
:1055700000000402010204004040404040000001DD
:10558000020400002054545478007F4844443800FA
:10559000384444442000384444487F00385454542C
:1055A0001800087E0901020018A4A4A47C007F084A
:1055B0000404780000447D4000004080847D0000A9
:1055C0007F102844000000417F4000007C04180444
:1055D00078007C0804047800384444443800FC24F3
:1055E0002424180018242418FC007C080404080053
:1055F000485454542000043F444020003C40402084
:105600007C001C2040201C003C4030403C004428D2
:10561000102844001CA0A0A07C004464544C4414F6
:105620001414141414000000000000000000000016
:105630000000000000000000F80000000000000072
:10564000333000000000100C06100C0600000000B3
:10565000000000000040C07840C0784000043F04D3
:10566000043F040400007088FC083000000018208B
:10567000FF211E0000F008F000E018000000211CCF
:10568000031E211E0000F00888700000001E212368
:10569000241927211010160E000000000000000041
:1056A0000000000000000000E018040200000000FC
:1056B000071820400000020418E00000000040200D
:1056C0001807000000404080F080404000020201C6
:1056D0000F01020200000000F000000000010101C3
:1056E0001F01010100000000000000000080B070F8
:1056F00000000000000000000000000000000101A8
:105700000101010101000000000000000000303034
:105710000000000000000000008060180400601815
:10572000060100000000E010080810E000000F1063
:105730002020100F00001010F800000000002020B2
:105740003F20200000007008080888700000302802
:1057500024222130000030088888483000001820BA
:105760002020110E000000C02010F80000000704E7
:1057700024243F240000F808888808080000192124
:105780002020110E0000E0108888180000000F1182
:105790002020110E0000380808C83808000000005A
:1057A0003F000000000070880808887000001C227C
:1057B0002121221C0000E010080810E00000003148
:1057C0002222110F00000000C0C0000000000000F5
:1057D0003030000000000000800000000000008069
:1057E000600000000000008040201008000001025E
:1057F00004081020004040404040404000040404A1
:105800000404040400000810204080000000201060
:105810000804020100007048080808F000000000B9
:105820003036010000C030C828E810E00007182713
:105830002423140B000000C038E0000000203C23AB
:10584000020227382008F8888888700000203F204E
:105850002020110E00C03008080808380007182062
:10586000202010080008F808080810E000203F2059
:105870002020100F0008F88888E8081000203F203A
:10588000202320180008F88888E8081000203F200E
:105890000003000000C03008080838000007182086
:1058A00020221E020008F808000008F808203F2106
:1058B0000101213F20000808F8080800000020200E
:1058C0003F2020000000000808F8080800C0808081
:1058D000807F00000008F888C028180800203F20BA
:1058E000012638200008F8080000000000203F20B2
:1058F000202020300008F8F800F8F80800203F00C9
:105900003F003F200008F830C00008F808203F2082
:105910000007183F00E01008080810E0000F1020F2
:105920002020100F0008F808080808F000203F2188
:105930000101010000E01008080810E0000F182421
:105940002438504F0008F8888888887000203F204D
:1059500000030C3020007088080808380000382048
:105960002121221C00180808F8080818000000204F
:105970003F2000000008F808000008F808001F2079
:105980002020201F000878880000C8380800000781
:10599000380E010000F80800F80008F800033C0782
:1059A00000073C0300081868808068180820302C25
:1059B00003032C30200838C800C838080000002035
:1059C0003F2000000010080808C8380800203826CA
:1059D0002120201800000000FE020202000000004A
:1059E0007F40404000000C30C0000000000000007C
:1059F000010638C00000020202FE00000000404024
:105A0000407F0000000000040202020400000000C9
:105A10000000000000000000000000000080808006
:105A200080808080800002020400000000000000EE
:105A30000000000000000080808080000000192429
:105A40002222223F2008F8008080000000003F1141
:105A50002020110E000000008080800000000E1148
:105A60002020201100000000808088F800000E1126
:105A70002020103F200000808080800000001F2236
:105A80002222221300008080F088888818002020BD
:105A90003F202000000000808080808000006B9408
:105AA000949493600008F8008080800000203F21DB
:105AB0000000203F20008098980000000000202077
:105AC0003F20200000000000809898000000C08067
:105AD00080807F000008F8000080808000203F2444
